S016000045727374655F53636872697474652E7372656366
S11300000C9434000C943E000C943E000C943E007E
S11300100C943E000C943E000C943E000C943E0064
S11300200C943E000C943E000C943E000C943E0054
S11300300C943E000C943E000C943E000C943E0044
S11300400C9440000C943E000C943E000C943E0032
S11300500C943E000C943E000C943E000C943E0024
S11300600C943E000C943E0011241FBECFEFD8E048
S1130070DEBFCDBF0E9453000C9467000C940000B7
S11300801F920F9200905F000F921124CF93DF9381
S1130090CDB7DEB70000DF91CF910F9000925F00E3
S11300A00F901F901895CF93DF93CDB7DEB785E4FB
S11300B090E022E0FC0120838EE690E02EE630E022
S11300C0F90120812160FC0120837894FFCFF8940A
S10500D0FFCF5C
S9030000FC
