:100000000C9434000C9451000C9451000C94510049
:100010000C9451000C9451000C9451000C9451001C
:100020000C9451000C9451000C9451000C9451000C
:100030000C9451000C9451000C9451000C945100FC
:100040000C9451000C9451000C9451000C945100EC
:100050000C9451000C9451000C9451000C945100DC
:100060000C9451000C94510011241FBECFEFD8E026
:10007000DEBFCDBF11E0A0E0B1E0E8E2F6E002C0F3
:1000800005900D92A830B107D9F727E0A8E0B1E0BC
:1000900001C01D92AC36B207E1F70E94F0020C9449
:1000A00012030C940000FB01208130E002C0359562
:1000B00027958A95E2F781E090E020FF02C080E07A
:1000C00090E00895FB01892B59F0208181E090E0B8
:1000D00002C0880F991F4A95E2F7822B80830BC0DC
:1000E000208181E090E002C0880F991F4A95E2F7D5
:1000F000809582238083808190E00895CF92DF9263
:10010000EF92FF92CF93DF936B017C0169E270E085
:1001100085E090E00E945300EC01892B09F441C076
:1001200080916A0790916B07892BD9F58091060120
:1001300090910701892B81F0109266071092670752
:100140001092680710926907109207011092060139
:10015000C12CD12C760125C080916607909167074C
:10016000A0916807B0916907A7019601281B390B78
:100170004A0B5B0B20936607309367074093680731
:100180005093690781E090E0909307018093060106
:10019000109262071092630710926407109265072D
:1001A0000DC04091620750916307609164077091A0
:1001B0006507411551056105710549F447E050E0B7
:1001C0006BE270E081E090E00E94620027C08091C5
:1001D000660790916707A0916807B0916907481773
:1001E00059076A077B074CF047E050E06BE270E08C
:1001F00080E090E00E94620011C0880F991FAA1F42
:10020000BB1F84179507A607B70744F4109262072F
:10021000109263071092640710926507809162073D
:1002200090916307A0916407B09165070196A11DA5
:10023000B11D8093620790936307A0936407B09306
:100240006507D0936B07C0936A07C701B6016F5F5C
:100250007F4F8F4F9F4FDF91CF91FF90EF90DF90B7
:10026000CF900895CF93DF9369E270E082E090E051
:100270000E945300EC01892BB9F0809160079091A6
:100280006107892B89F480915E0790915F07892B24
:1002900029F010925F0710925E0706C081E090E09F
:1002A00090935F0780935E0743E050E06BE270E05D
:1002B00080915E0790915F070E946200D093610772
:1002C000C0936007DF91CF9108958F929F92AF9274
:1002D000BF92CF92DF92EF92FF92CF93DF9363E2D0
:1002E00070E080E090E00E945300EC01892B09F45B
:1002F00041C080915C0790915D07892BD9F5809171
:100300000401909105018130910519F0029751F097
:1003100022C0109258071092590710925A07109253
:100320005B071FC08091580790915907A0915A0709
:10033000B0915B07880F991FAA1FBB1F8093000114
:1003400090930101A0930201B09303011092050163
:100350001092040106C081E090E090930501809323
:10036000040180910401909105010196909305018B
:10037000809304018090540790905507A0905607F1
:10038000B0905707C0900001D0900101E0900201A9
:10039000F09003018C149D04AE04BF044CF441E0C2
:1003A00050E065E270E081E090E00E94620008C0E9
:1003B00041E050E065E270E080E090E00E94620081
:1003C000CC0CDD1CEE1CFF1CC814D904EA04FB0491
:1003D00044F4109254071092550710925607109249
:1003E00057078091540790915507A0915607B091F7
:1003F00057070196A11DB11D80935407909355078F
:10040000A0935607B09357078091580790915907CA
:10041000A0915A07B0915B070196A11DB11D809371
:10042000580790935907A0935A07B0935B07D0934E
:100430005D07C0935C07DF91CF91FF90EF90DF9055
:10044000CF90BF90AF909F908F900895CF92DF9202
:10045000EF92FF92CF93DF938091500790915107D5
:10046000A0915207B09153070397A105B105C4F1BC
:100470001092500710925107109252071092530792
:10048000C0914E07D0914F07C0904A07D0904B07BC
:10049000E0904C07F0904D0763E270E082E090E05E
:1004A0000E94530020E931E0C29FF001C39FF00D8C
:1004B000D29FF00D1124EC0DFD1DEE0FFF1FE65F26
:1004C000FE4F918380838FEFC81AD80AE80AF80A92
:1004D000C0924A07D0924B07E0924C07F0924D072A
:1004E00080914E0790914F07892B09F1C0904A07E0
:1004F000D0904B07E0904C07F0904D07F601EE0FBF
:10050000FF1FE65FFE4F80819181909309018093E8
:10051000080143E050E065E270E00E9462008FE86D
:10052000C81681E0D806E104F10419F545C0C09071
:100530004A07D0904B07E0904C07F0904D07F6012A
:10054000E057FE4FEE0FFF1FE65FFE4F8081918167
:10055000909309018093080143E050E065E270E068
:100560000E9462008FE8C81681E0D806E104F10419
:10057000A1F08091500790915107A0915207B0913E
:1005800053070196A11DB11D809350079093510709
:10059000A0935207B09353071CC010924A071092C1
:1005A0004B0710924C0710924D0781E090E090931A
:1005B0004F0780934E07DDCF10924A0710924B07EA
:1005C00010924C0710924D0710924F0710924E0751
:1005D000D0CFDF91CF91FF90EF90DF90CF90089533
:1005E00014B814B8539A579A219A239A84B18095D3
:1005F00085B98AB180958BB9C12CD12C76010E9426
:100600002602C701B6010E947E006B017C010E9498
:1006100065010E9432018FE99FE00197F1F700C068
:080620000000EDCFF894FFCFBC
:08062800C80000000100010000
:00000001FF
