:100000000C9434000C9451000C9451000C94510049
:100010000C9451000C9451000C9451000C9451001C
:100020000C9451000C9451000C9451000C9451000C
:100030000C9451000C9451000C9451000C945100FC
:100040000C9451000C9451000C9451000C945100EC
:100050000C9451000C9451000C9451000C945100DC
:100060000C9451000C94510011241FBECFEFD8E026
:10007000DEBFCDBF11E0A0E0B1E0EEE0F1E002C0F4
:1000800005900D92A230B107D9F721E0A2E0B1E0CE
:1000900001C01D92A430B207E1F70E9453000C94F6
:1000A00085000C94000086E284B9289A42E034E08E
:1000B000809100018F5F8093000190E02091030107
:1000C000821B91098436910544F085B1842785B956
:1000D000809103018C59809303018091000190E08D
:1000E00020910201821B91098335910544F085B16D
:1000F000832785B9809102018D5A80930201189956
:0E01000002C02D9AD5CF2D98D3CFF894FFCF03
:02010E00FE00F1
:00000001FF
