:100000000C9434000C9446000C9446000C9446006A
:100010000C9446000C9446000C9446000C94460048
:100020000C9446000C9448000C9446000C94460036
:100030000C9446000C9446000C9446000C94460028
:100040000C9446000C9446000C9446000C94460018
:100050000C9446000C9446000C9446000C94460008
:100060000C9446000C94460011241FBECFEFD8E03C
:10007000DEBFCDBF21E0A0E0B1E001C01D92A830FD
:10008000B207E1F70E943C010C944E010C94000071
:100090001F920F9200905F000F921124AF92BF92B7
:1000A000CF92DF92EF92FF920F931F932F933F9384
:1000B0004F935F936F937F938F939F93CF93DF9330
:1000C000CDB7DEB7A0900001B0900101C090020151
:1000D000D0900301E0900401F09005010091060129
:1000E000109107012A2D3B2D4C2D5D2D6E2D7F2D5E
:1000F000802F912F3F5F4F4F5F4F6F4F7F4F8F4F3D
:100100009F4FA22EB32EC42ED52EE62EF72E082FEB
:10011000192FA0920001B0920101C0920201D09269
:100120000301E0920401F09205010093060110938F
:1001300007010000DF91CF919F918F917F916F9187
:100140005F914F913F912F911F910F91FF90EF90F1
:10015000DF90CF90BF90AF900F9000925F000F9014
:100160001F901895CF93DF93CDB7DEB710920001A3
:1001700010920101109202011092030110920401E9
:1001800010920501109206011092070181EB90E098
:1001900022E0FC01208380E790E020E730E0F901D5
:1001A00020812160FC0120830000DF91CF91089520
:1001B000EF92FF920F931F93CF93DF9300D000D065
:1001C0001F92CDB7DEB7F89482EB90E0FC018081FE
:1001D000E82EF12C00E010E02091000130910101A7
:1001E0004091020150910301609104017091050159
:1001F0008091060190910701DA01C9018E0D9F1DC2
:10020000A01FB11F89839A83AB83BC8387E390E0EF
:10021000FC0180818D8378948D81882F90E081709E
:100220009927892BB9F089819A81AB81BC8180782B
:100230009927AA27BB27892B8A2B8B2B59F48981D5
:100240009A81AB81BC819F5FAF4FBF4F89839A83F7
:10025000AB83BC8389819A81AB81BC81BC01CD0118
:100260000F900F900F900F900F90DF91CF911F91F3
:100270000F91FF90EF900895CF93DF9300D000D0BF
:10028000CDB7DEB70E94B20078940E94D800DC019E
:10029000CB0189839A83AB83BC83F7CFF894FFCFDC
:00000001FF
