S00F0000556562756E67312E737265637E
S11300000C9434000C9449000C9449000C9449005D
S11300100C9449000C9449000C9449000C94490038
S11300200C9449000C9449000C9449000C94490028
S11300300C9449000C9449000C9449000C94490018
S11300400C944B000C9449000C9449000C94490006
S11300500C9449000C9449000C9449000C944900F8
S11300600C9449000C94490011241FBECFEFD8E032
S1130070DEBFCDBF11E0A0E0B1E0E2E5F1E002C0F7
S113008005900D92A230B107D9F70E947C000C9420
S1130090A7000C9400001F920F9200905F000F9233
S11300A011242F933F938F939F93EF93FF93CF93B9
S11300B0DF93CDB7DEB786E490E020910001309164
S11300C00101FC0120838BE290E02BE230E0F90196
S11300D0308120E82327FC0120830000DF91CF91A9
S11300E0FF91EF919F918F913F912F910F900092EB
S11300F05F000F901F901895CF93DF93CDB7DEB7B5
S11301008AE290E02AE230E0F90120812068FC01D3
S113011020838BE290E02BE230E0F901208124601F
S1130120FC01208386E490E022EBFC01208385E43B
S113013090E024E0FC0120838EE690E02EE630E09F
S1130140F90120812160FC0120837894FFCFF89489
S1050150FFCFDB
S1050152B200F5
S9030000FC
