S01000004C43445F44656D6F2E737265635D
S11300000C94B5000C94D2000C94D2000C94D20041
S11300100C94D2000C94D2000C94D2000C94D20014
S11300200C94D2000C94CF0A0C94D2000C94D200FD
S11300300C94D2000C94D2000C94D2000C94D200F4
S11300400C94D2000C94D2000C94D2000C94D200E4
S11300500C94D2000C94D2000C94D2000C94D200D4
S11300600C94D2000C94D2006E616E00696E66002E
S113007000407A10F35A00A0724E18090010A5D45B
S1130080E80000E87648170000E40B54020000CAB8
S11300909A3B000000E1F5050000809698000000FE
S11300A040420F000000A08601000000102700005D
S11300B00000E803000000006400000000000A00E3
S11300C0000000000100000000002C76D888DC67E6
S11300D04F0823DFC1DFAE59E1B1B796E5E3E4533E
S11300E0C63AE651997696E8E6C28426EB898C9B5B
S11300F062ED407C6FFCEFBC9C9F40F2BAA56FA5FB
S1130100F490055A2AF75C936B6CF9676DC11BFC7C
S1130110E0E40D47FEF520E6B500D0ED902E030097
S1130120943577050080841E080000204E0A0000E4
S113013000C80C333333330F986E12831141EF8DA3
S11301402114893BE65516CFFEE6DB18D1844B38E3
S11301501BF77C1D901DA4BBE424203284725E2214
S11301608100C9F124ECA1E53D2711241FBECFEF86
S1130170D8E0DEBFCDBF11E0A0E0B1E0E4E9FBE2EE
S113018002C005900D92AE32B107D9F721E0AEE27C
S1130190B1E001C01D92A633B207E1F70E94420C00
S11301A00C94C8150C940000CF93DF931F92CDB725
S11301B0DEB789838981882351F085E290E025E2C6
S11301C030E0F90120812061FC01208309C085E22F
S11301D090E025E230E0F90120812F7EFC012083AC
S11301E000000F90DF91CF910895CF93DF93CDB7A7
S11301F0DEB7A0970FB6F894DEBF0FBECDBF85E281
S113020090E025E230E0F90120812860FC012083A0
S113021080E090E0A0E8BFE389839A83AB83BC834A
S11302202BEA3AEA4AEA50E469817A818B819C811B
S11302300E94D60FDC01CB018D839E83AF83B887E8
S113024020E030E040E850E469817A818B819C8130
S11302500E94D60FDC01CB0189879A87AB87BC87C4
S113026020E030E040E85FE36D817E818F819885F6
S11302700E94780E88231CF481E08D87B2C020E0B0
S11302803FEF4FE757E469857A858B859C850E940B
S1130290D10F18160CF07BC020E030E04AE754E49C
S11302A069817A818B819C810E947D0EDC01CB0166
S11302B08E879F87A88BB98B20E030E04AE755E40E
S11302C06E857F85888999890E94D60FDC01CB01D0
S11302D08A8B9B8BAC8BBD8B20E030E040E85FE3E6
S11302E06A897B898C899D890E94780E88232CF4E5
S11302F081E090E09F8B8E8B3FC020E03FEF4FE783
S113030057E46A897B898C899D890E94D10F1816CC
S11303104CF520E030E040E251E46E857F85888929
S113032099890E94D60FDC01CB01BC01CD010E944A
S1130330EF0EDC01CB019F8B8E8B0FC080E991E027
S1130340998F888F888D998D0197F1F7998F888F70
S11303508E899F8901979F8B8E8B8E899F89892B8C
S113036069F73FC06A897B898C899D890E94EF0E59
S1130370DC01CB019F8B8E8B8E899F899B8F8A8F0B
S11303808A8D9B8D0197F1F79B8F8A8F2AC020E07D
S113039030E04FE753E46D817E818F8198850E9420
S11303A0D10F1816ACF469857A858B859C850E94DB
S11303B0EF0EDC01CB019D8F8C8F8C8D9D8D9F8FDB
S11303C08E8F8E8D9F8D0197F1F79F8F8E8F0FC02B
S11303D06D817E818F8198850E94EF0EDC01CB01B7
S11303E08D878D8588A388A18A95F1F788A385E2F6
S11303F090E025E230E0F9012081277FFC01208391
S11304000000A0960FB6F894DEBF0FBECDBFDF91FB
S1130410CF910895CF93DF931F92CDB7DEB7898331
S11304208981882F90E080719927892B51F08BE284
S113043090E02BE230E0F90120812062FC0120836E
S113044009C08BE290E02BE230E0F90120812F7D9E
S1130450FC0120838981882F90E080729927892B61
S113046051F08BE290E02BE230E0F9012081206131
S1130470FC01208309C08BE290E02BE230E0F9011B
S113048020812F7EFC0120838981882F90E0807455
S11304909927892B51F08BE290E02BE230E0F901AF
S11304A020812860FC01208309C08BE290E02BE2CC
S11304B030E0F9012081277FFC0120838981882392
S11304C054F48BE290E02BE230E0F90120812460C7
S11304D0FC01208309C08BE290E02BE230E0F901BB
S11304E020812B7FFC0120830E94F50000000F90E7
S11304F0DF91CF910895CF93DF93CDB7DEB7A19766
S11305000FB6F894DEBF0FBECDBF89A389A10E94A8
S11305100A0289A18295807F0E940A0280E090E00D
S1130520A4E3B2E489839A83AB83BC832BEA3AEADB
S11305304AEA50E469817A818B819C810E94D60FBA
S1130540DC01CB018D839E83AF83B88720E030E04C
S113055040E850E469817A818B819C810E94D60FA6
S1130560DC01CB0189879A87AB87BC8720E030E028
S113057040E85FE36D817E818F8198850E94780ECB
S113058088231CF481E08D87B2C020E03FEF4FE761
S113059057E469857A858B859C850E94D10F18164E
S11305A00CF07BC020E030E04AE754E469817A81B2
S11305B08B819C810E947D0EDC01CB018E879F87FD
S11305C0A88BB98B20E030E04AE755E46E857F853F
S11305D0888999890E94D60FDC01CB018A8B9B8B79
S11305E0AC8BBD8B20E030E040E85FE36A897B8917
S11305F08C899D890E94780E88232CF481E090E0F8
S11306009F8B8E8B3FC020E03FEF4FE757E46A8912
S11306107B898C899D890E94D10F18164CF520E0A6
S113062030E040E251E46E857F85888999890E9493
S1130630D60FDC01CB01BC01CD010E94EF0EDC0121
S1130640CB019F8B8E8B0FC080E991E0998F888FAF
S1130650888D998D0197F1F7998F888F8E899F895D
S113066001979F8B8E8B8E899F89892B69F73FC059
S11306706A897B898C899D890E94EF0EDC01CB01FC
S11306809F8B8E8B8E899F899B8F8A8F8A8D9B8D62
S11306900197F1F79B8F8A8F2AC020E030E04FE763
S11306A053E46D817E818F8198850E94D10F181645
S11306B0ACF469857A858B859C850E94EF0EDC01FC
S11306C0CB019D8F8C8F8C8D9D8D9F8F8E8F8E8D6A
S11306D09F8D0197F1F79F8F8E8F0FC06D817E8163
S11306E08F8198850E94EF0EDC01CB018D878D856B
S11306F088A388A18A95F1F788A30000A1960FB674
S1130700F894DEBF0FBECDBFDF91CF910895CF9394
S1130710DF93CDB7DEB72F970FB6F894DEBF0FBEC9
S1130720CDBF8F8780E00E94D4008F850E947B021A
S11307308F85882F90E00197039708F072C080E0BE
S113074090E0A0E0B0E489839A83AB83BC8320E08B
S113075030E04AE755E469817A818B819C810E946B
S1130760D60FDC01CB018D839E83AF83B88720E055
S113077030E040E85FE36D817E818F8198850E943F
S1130780780E88232CF481E090E09A8789873FC013
S113079020E03FEF4FE757E46D817E818F8198859C
S11307A00E94D10F18164CF520E030E040E251E4ED
S11307B069817A818B819C810E94D60FDC01CB01F7
S11307C0BC01CD010E94EF0EDC01CB019A87898721
S11307D00FC080E991E09C878B878B859C8501976E
S11307E0F1F79C878B8789859A8501979A878987F2
S11307F089859A85892B69F714C06D817E818F81E3
S113080098850E94EF0EDC01CB019A878987898540
S11308109A859E878D878D859E850197F1F79E87A2
S11308208D8781E00E94D40000002F960FB6F894C3
S1130830DEBF0FBECDBFDF91CF9108950F931F93FD
S1130840CF93DF93CDB7DEB7CE58D1090FB6F89466
S1130850DEBF0FBECDBF85E290E025E230E0F901B6
S113086020812F7EFC01208385E290E025E230E0A8
S1130870F9012081277FFC0120838BE290E02BE2A9
S113088030E0F9012081237CFC01208384E290E0A4
S113089024E230E0F90120812061FC01208384E21C
S11308A090E024E230E0F90120812860FC012083FB
S11308B08AE290E02AE230E0F90120812C63FC0115
S11308C0208380E090E0A0E7B1E489839A83AB833E
S11308D0BC838E010B571F4F20E030E04AE755E4FC
S11308E069817A818B819C810E94D60FDC01CB01C6
S11308F0F80180839183A283B383CE018B579F4FEA
S113090020E030E040E85FE3FC0160817181828196
S113091093810E94780E88234CF4CE0187579F4F11
S113092021E030E0FC013183208369C0CE018B5784
S11309309F4F20E03FEF4FE757E4FC016081718156
S1130940828193810E94D10F18160CF046C020E0DA
S113095030E040E251E469817A818B819C810E947C
S1130960D60FDC01CB018E0107571F4FBC01CD010F
S11309700E94EF0EDC01CB01F8019183808324C037
S1130980CE0185579F4F20E931E0FC01318320835C
S1130990CE0185579F4FFC01808191810197F1F72A
S11309A09E0125573F4FF90191838083CE018757DC
S11309B09F4F9E0127573F4FF901208131812150DC
S11309C03109FC0131832083CE0187579F4FFC01FD
S11309D080819181892BA1F62CC08E0107571F4F6E
S11309E0CE018B579F4FFC0160817181828193817D
S11309F00E94EF0EDC01CB01F80191838083CE01CC
S1130A0083579F4F9E0127573F4FF9012081318122
S1130A10FC0131832083CE0183579F4FFC018081E9
S1130A2091810197F1F79E0123573F4FF90191837B
S1130A30808380E30E940A0280E090E2A0E8B5E4AB
S1130A408D839E83AF83B8878E0107591F4F2BEA8E
S1130A503AEA4AEA50E46D817E818F8198850E944A
S1130A60D60FDC01CB01F80180839183A283B38389
S1130A708E0103591F4F20E030E040E850E46D81BF
S1130A807E818F8198850E94D60FDC01CB01F8010D
S1130A9080839183A283B383CE0187599F4F20E043
S1130AA030E040E85FE3FC016081718182819381E1
S1130AB00E94780E88233CF4CE018F589F4F21E08A
S1130AC0FC0120832CC1CE0183599F4F20E03FEFCE
S1130AD04FE757E4FC0160817181828193810E9418
S1130AE0D10F18160CF0CDC020E030E04AE754E4F2
S1130AF06D817E818F8198850E947D0EDC01CB0102
S1130B009E012E583F4FF90180839183A283B383C2
S1130B108E010A581F4FCE018E589F4F20E030E0BF
S1130B204AE755E4FC0160817181828193810E94CE
S1130B30D60FDC01CB01F80180839183A283B383B8
S1130B40CE018A589F4F20E030E040E85FE3FC018B
S1130B5060817181828193810E94780E88234CF494
S1130B60CE0186589F4F21E030E0FC013183208381
S1130B706DC0CE018A589F4F20E03FEF4FE757E406
S1130B80FC0160817181828193810E94D10F1816CA
S1130B900CF04AC0CE018E589F4F20E030E040E276
S1130BA051E4FC0160817181828193810E94D60F9E
S1130BB0DC01CB018E0106581F4FBC01CD010E9400
S1130BC0EF0EDC01CB01F8019183808324C0CE01B8
S1130BD084589F4F20E931E0FC0131832083CE010A
S1130BE084589F4FFC01808191810197F1F79E0108
S1130BF024583F4FF90191838083CE0186589F4F3B
S1130C009E0126583F4FF90120813181215031093D
S1130C10FC0131832083CE0186589F4FFC018081E3
S1130C209181892BA1F67BC08E0106581F4FCE01FE
S1130C308A589F4FFC0160817181828193810E9457
S1130C40EF0EDC01CB01F80191838083CE01825841
S1130C509F4F9E0126583F4FF90120813181FC01AD
S1130C6031832083CE0182589F4FFC018081918182
S1130C700197F1F79E0122583F4FF9019183808338
S1130C804EC0CE0187599F4F20E030E04FE753E438
S1130C90FC0160817181828193810E94D10F1816B9
S1130CA06CF58E0100581F4FCE0183599F4FFC01F4
S1130CB060817181828193810E94EF0EDC01CB01FE
S1130CC0F80191838083CE018E579F4F9E01205857
S1130CD03F4FF90120813181FC0131832083CE0112
S1130CE08E579F4FFC01808191810197F1F79E01FE
S1130CF02E573F4FF9019183808328C08E010F58EE
S1130D001F4FCE0187599F4FFC0160817181828101
S1130D1093810E94EF0EDC01CB01F8018083CE01A8
S1130D208C579F4F9E012F583F4FF9012081FC01A2
S1130D302083CE018C579F4FFC018081282F2A9558
S1130D40F1F7CE018C579F4FFC01208380E30E9472
S1130D500A0280E090E0A8ECB2E489879A87AB8726
S1130D60BC878E01035B1F4F2BEA3AEA4AEA50E440
S1130D7069857A858B859C850E94D60FDC01CB0121
S1130D80F80180839183A283B3838E010F5A1F4F8E
S1130D9020E030E040E850E469857A858B859C85C5
S1130DA00E94D60FDC01CB01F80180839183A283DA
S1130DB0B383CE01835B9F4F20E030E040E85FE3E4
S1130DC0FC0160817181828193810E94780E882365
S1130DD03CF4CE018B5A9F4F21E0FC0120832CC1AF
S1130DE0CE018F5A9F4F20E03FEF4FE757E4FC01BD
S1130DF060817181828193810E94D10F18160CF059
S1130E00CDC020E030E04AE754E469857A858B85DB
S1130E109C850E947D0EDC01CB019E012A5A3F4F26
S1130E20F90180839183A283B3838E01065A1F4FF5
S1130E30CE018A5A9F4F20E030E04AE755E4FC0196
S1130E4060817181828193810E94D60FDC01CB0184
S1130E50F80180839183A283B383CE01865A9F4F86
S1130E6020E030E040E85FE3FC0160817181828131
S1130E7093810E94780E88234CF4CE01825A9F4FAE
S1130E8021E030E0FC01318320836DC0CE01865A1D
S1130E909F4F20E03FEF4FE757E4FC0160817181F1
S1130EA0828193810E94D10F18160CF04AC0CE01A2
S1130EB08A5A9F4F20E030E040E251E4FC01608117
S1130EC07181828193810E94D60FDC01CB018E0156
S1130ED0025A1F4FBC01CD010E94EF0EDC01CB0171
S1130EE0F8019183808324C0CE01805A9F4F20E96A
S1130EF031E0FC0131832083CE01805A9F4FFC01F5
S1130F00808191810197F1F79E01205A3F4FF901A9
S1130F1091838083CE01825A9F4F9E01225A3F4F74
S1130F20F9012081318121503109FC013183208371
S1130F30CE01825A9F4FFC0180819181892BA1F6B9
S1130F407BC08E01025A1F4FCE01865A9F4FFC016F
S1130F5060817181828193810E94EF0EDC01CB015B
S1130F60F80191838083CE018E599F4F9E01225AAE
S1130F703F4FF90120813181FC0131832083CE016F
S1130F808E599F4FFC01808191810197F1F79E0159
S1130F902E593F4FF901918380834EC0CE01835B6C
S1130FA09F4F20E030E04FE753E4FC016081718102
S1130FB0828193810E94D10F18166CF58E010C5911
S1130FC01F4FCE018F5A9F4FFC0160817181828136
S1130FD093810E94EF0EDC01CB01F80191838083A1
S1130FE0CE018A599F4F9E012C593F4FF901208110
S1130FF03181FC0131832083CE018A599F4FFC014A
S1131000808191810197F1F79E012A593F4FF9019F
S11310109183808328C08E010B5A1F4FCE01835BBE
S11310209F4FFC0160817181828193810E94EF0E48
S1131030DC01CB01F8018083CE0188599F4F9E01CA
S11310402B5A3F4FF9012081FC012083CE0188599E
S11310509F4FFC018081282F2A95F1F7CE018859F2
S11310609F4FFC01208380E30E940A0280E090E00D
S1131070A8ECB2E48D879E87AF87B88B2BEA3AEA57
S11310804AEA50E46D857E858F8598890E94D60F43
S1131090DC01CB0189AB9AABABABBCAB20E030E05D
S11310A040E850E46D857E858F8598890E94D60F2F
S11310B0DC01CB018DAB9EABAFABB8AF20E030E031
S11310C040E85FE369A97AA98BA99CA90E94780EDC
S11310D088231CF481E089AF09C120E03FEF4FE78A
S11310E057E46DA97EA98FA998AD0E94D10F181657
S11310F00CF0BEC020E030E04AE754E46D857E8504
S11311008F8598890E947D0EDC01CB018AAF9BAF4D
S1131110ACAFBDAF8E01025C1F4F20E030E04AE768
S113112055E46AAD7BAD8CAD9DAD0E94D60FDC015C
S1131130CB01F80180839183A283B383CE01CE9641
S113114020E030E040E85FE3FC016081718182814E
S113115093810E94780E88234CF4CE018E5B9F4FBE
S113116021E030E0FC013183208367C0CE01CE96BC
S113117020E03FEF4FE757E4FC01608171818281F9
S113118093810E94D10F18160CF046C020E030E085
S113119040E251E46AAD7BAD8CAD9DAD0E94D60FAB
S11311A0DC01CB018E010E5B1F4FBC01CD010E94FF
S11311B0EF0EDC01CB01F8019183808324C0CE01C2
S11311C08C5B9F4F20E931E0FC0131832083CE0109
S11311D08C5B9F4FFC01808191810197F1F79E0107
S11311E02C5B3F4FF90191838083CE018E5B9F4F2F
S11311F09E012E5B3F4FF90120813181215031093D
S1131200FC0131832083CE018E5B9F4FFC018081E2
S11312109181892BA1F66AC08E010E5B1F4FCE010E
S1131220CE96FC0160817181828193810E94EF0ED0
S1131230DC01CB01F80191838083CE018A5B9F4F4F
S11312409E012E5B3F4FF90120813181FC013183E6
S11312502083CE018A5B9F4FFC018081918101979D
S1131260F1F79E012A5B3F4FF901918380833EC0D1
S113127020E030E04FE753E469A97AA98BA99CA93F
S11312800E94D10F18164CF58E01085B1F4F6DA9F3
S11312907EA98FA998AD0E94EF0EDC01CB01F80165
S11312A091838083CE01865B9F4F9E01285B3F4FD5
S11312B0F90120813181FC0131832083CE01865BD9
S11312C09F4FFC01808191810197F1F79E01265B7C
S11312D03F4FF901918380831CC069A97AA98BA926
S11312E09CA90E94EF0EDC01CB0189AFCE01845B87
S11312F09F4F29ADFC012083CE01845B9F4FFC01ED
S11313008081282F2A95F1F7CE01845B9F4FFC0141
S1131310208380E20E940A0280E090E0A8ECB2E41C
S1131320898B9A8BAB8BBC8B2BEA3AEA4AEA50E462
S113133069897A898B899C890E94D60FDC01CB014B
S11313408D8B9E8BAF8BB88F20E030E040E850E46B
S113135069897A898B899C890E94D60FDC01CB012B
S1131360898F9A8FAB8FBC8F20E030E040E85FE339
S11313706D897E898F89988D0E94780E88231CF44C
S113138081E08D8FB2C020E03FEF4FE757E4698DD5
S11313907A8D8B8D9C8D0E94D10F18160CF07BC01A
S11313A020E030E04AE754E469897A898B899C8992
S11313B00E947D0EDC01CB018E8F9F8FA8A3B9A361
S11313C020E030E04AE755E46E8D7F8D88A199A135
S11313D00E94D60FDC01CB018AA39BA3ACA3BDA3BF
S11313E020E030E040E85FE36AA17BA18CA19DA1ED
S11313F00E94780E88232CF481E090E09FA38EA3B2
S11314003FC020E03FEF4FE757E46AA17BA18CA1E6
S11314109DA10E94D10F18164CF520E030E040E267
S113142051E46E8D7F8D88A199A10E94D60FDC01B5
S1131430CB01BC01CD010E94EF0EDC01CB019FA3C7
S11314408EA30FC080E991E099A788A788A599A5E4
S11314500197F1F799A788A78EA19FA101979FA350
S11314608EA38EA19FA1892B69F73FC06AA17BA19E
S11314708CA19DA10E94EF0EDC01CB019FA38EA342
S11314808EA19FA19BA78AA78AA59BA50197F1F787
S11314909BA78AA72AC020E030E04FE753E46D8978
S11314A07E898F89988D0E94D10F1816ACF4698DAE
S11314B07A8D8B8D9C8D0E94EF0EDC01CB019DA754
S11314C08CA78CA59DA59FA78EA78EA59FA50197E8
S11314D0F1F79FA78EA70FC06D897E898F89988D9C
S11314E00E94EF0EDC01CB018D8F8D8D88AB88A916
S11314F08A95F1F788AB88E20E94870388E00E940E
S1131500870381E00E94870386E00E9487038CE0C2
S11315100E9487030000C257DF4F0FB6F894DEBF66
S11315200FBECDBFDF91CF911F910F910895CF933F
S1131530DF9300D0CDB7DEB789836A838981829532
S1131540880F880F807C9A81890F8A838A818058CA
S11315500E94870300000F900F90DF91CF910895B0
S1131560CF93DF9300D0CDB7DEB79A8389830BC0C6
S113157089819A81FC0180810E947B0289819A8100
S113158001969A83898389819A81FC0180818823C9
S113159079F700000F900F90DF91CF9108951F927B
S11315A00F9200905F000F921124AF92BF92CF92DE
S11315B0DF92EF92FF920F931F932F933F934F93DA
S11315C05F936F937F938F939F93CF93DF93CDB765
S11315D0DEB7A0902E01B0902F01C0903001D090C2
S11315E03101E0903201F090330100913401109107
S11315F035012A2D3B2D4C2D5D2D6E2D7F2D802FF9
S1131600912F3F5F4F4F5F4F6F4F7F4F8F4F9F4FD4
S1131610A22EB32EC42ED52EE62EF72E082F192F68
S1131620A0922E01B0922F01C0923001D0923101CC
S1131630E0923201F09233010093340110933501AA
S11316400000DF91CF919F918F917F916F915F9176
S11316504F913F912F911F910F91FF90EF90DF9049
S1131660CF90BF90AF900F9000925F000F901F90AB
S11316701895CF93DF93CDB7DEB710922E01109259
S11316802F01109230011092310110923201109208
S11316903301109234011092350181EB90E022E085
S11316A0FC01208380E790E020E730E0F90120810D
S11316B02160FC01208378940000DF91CF9108958C
S11316C02F923F924F925F926F927F928F929F924E
S11316D0AF92BF92CF92DF92EF92FF920F931F933C
S11316E0CF93DF93CDB7DEB761970FB6F894DEBF23
S11316F00FBECDBFF89482EB90E0FC018081A82E50
S1131700B12CC12CD12CE12CF12C8701F0912E01AC
S1131710FA8780912F018B87909130019C87E0910B
S11317203101ED87F0913201FE87809133018F877B
S113173090913401988BE0913501E98B2A2D3B2D52
S11317404C2D5D2D6E2D7F2D802F912FAA84BB846F
S1131750CC84DD84EE84FF84088919890E94F71300
S113176029833A834B835C836D837E838F8398873D
S113177087E390E0FC018081898778948985882FAC
S113178090E081709927892B09F44BC08981F82F47
S1131790F0782F2E8A81982F9070392E8B81E82F24
S11317A0E0704E2E8C81F82FF0705F2E8D81982F73
S11317B09070692E8E81E82FE0707E2E8F81F82F35
S11317C0F0708F2E8885982F9070992E222D332DAE
S11317D0442D552D662D772D882D992DA0E00E943E
S11317E01214F9F429813A814B815C816D817E81E7
S11317F08F8198853F5F4F4F5F4F6F4F7F4F8F4F64
S11318009F4FA22EB32EC42ED52EE62EF72E082FD0
S1131810192FA982BA82CB82DC82ED82FE820F83E9
S1131820188729813A814B815C816D817E818F810A
S11318309885A22EB32EC42ED52EE62EF72E082F71
S1131840192F2A2D3B2D4C2D5D2D6E2D7F2D802F94
S1131850912F61960FB6F894DEBF0FBECDBFDF9116
S1131860CF911F910F91FF90EF90DF90CF90BF9099
S1131870AF909F908F907F906F905F904F903F902C
S11318802F9008952F923F924F925F926F927F9282
S11318908F929F92AF92BF92CF92DF92EF92FF927C
S11318A00F931F93CF93DF93CDB7DEB7C054D10905
S11318B00FB6F894DEBF0FBECDBF84E290E024E201
S11318C030E0F90120812460FC0120831A8A1B8AFC
S11318D01C8A1D8A0E941E040E94390B61E080E06C
S11318E00E94970A80E091E00E94B00A86E290E0AC
S11318F0FC018081882F90E08170992721E0892B59
S113190009F020E02E8B8E89882331F08981882389
S113191019F481E090E002C080E090E08F8B8E8922
S1131920882331F48981882319F081E090E002C092
S113193080E090E0888F8E89898386E290E0FC01C4
S11319408081882F90E081709927892B51F485E25A
S113195090E025E230E0F90120812460FC0120833D
S113196009C085E290E025E230E0F90120812B7F77
S1131970FC0120838F89882391F00E94600BA22EA2
S1131980B32EC42ED52EE62EF72E082F192FAA8299
S1131990BB82CC82DD82EE82FF8208871987888D24
S11319A0882391F00E94600BA22EB32EC42ED52E54
S11319B0E62EF72E082F192FAA86BB86CC86DD8645
S11319C0EE86FF86088B198B0E94600BA22EB32E25
S11319D0C42ED52EE62EF72E082F192F2A2D3B2D97
S11319E04C2D5D2D6E2D7F2D802F912F0E941E0F6B
S11319F0DC01CB012DEB37E346E055E3BC01CD011F
S1131A000E94D60FDC01CB0120E030E040E85FE328
S1131A10BC01CD010E940C0EDC01CB012A893B895B
S1131A204C895D89BC01CD010E94D10F18160CF0C0
S1131A30F1C061E080E00E94970AAA80BB80CC805C
S1131A40DD80EE80FF80088519852A843B844C84E0
S1131A505D846E847F84888899882A2D3B2D4C2D43
S1131A605D2D6E2D7F2D802F912FA22CB32CC42C95
S1131A70D52CE62CF72C082D192D0E94091408F0FA
S1131A804EC02A853B854C855D856E857F8588891A
S1131A909989AA80BB80CC80DD80EE80FF80088598
S1131AA019850E940014A22EB32EC42ED52EE62E24
S1131AB0F72E082F192F2A2D3B2D4C2D5D2D6E2D21
S1131AC07F2D802F912F0E941E0FDC01CB012DEB67
S1131AD037E346E055E3BC01CD010E94D60FDC019B
S1131AE0CB012B2F2F932A2F2F93292F2F938F93B3
S1131AF08EE091E0892F8F938EE091E08F93CE0159
S1131B004996292F2F938F930E9448158DB79EB71E
S1131B1008960FB6F894DEBF0FBECDBF57C00E9423
S1131B20600BA22EB32EC42ED52EE62EF72E082F30
S1131B30192F2A2D3B2D4C2D5D2D6E2D7F2D802FA1
S1131B40912FAA80BB80CC80DD80EE80FF80088549
S1131B5019850E940014A22EB32EC42ED52EE62E73
S1131B60F72E082F192F2A2D3B2D4C2D5D2D6E2D70
S1131B707F2D802F912F0E941E0FDC01CB012DEBB6
S1131B8037E346E055E3BC01CD010E94D60FDC01EA
S1131B90CB012B2F2F932A2F2F93292F2F938F9302
S1131BA08EE091E0892F8F938EE091E08F93CE01A8
S1131BB04996292F2F938F930E944815EDB7FEB7AE
S1131BC038960FB6F894DEBF0FBECDBFCE0149964E
S1131BD00E94B00A2DEC3CEC4CE45EE36A897B89FC
S1131BE08C899D890E940C0EDC01CB018A8B9B8B16
S1131BF0AC8BBD8B61E081E00E94970A8E898823BB
S1131C0029F087E191E00E94B00A70CE81E291E070
S1131C100E94B00A6BCE5058BB27AA270E94230EFD
S1131C200C94970F0E94890F38F00E94900F20F0B7
S1131C3039F49F3F19F426F40C94860F0EF4E095C2
S1131C40E7FB0C94800FE92F0E94A80F58F3BA17F2
S1131C50620773078407950720F079F4A6F50C94BE
S1131C60CA0F0EF4E0950B2EBA2FA02D0B01B9016B
S1131C7090010C01CA01A0011124FF27591B99F0FE
S1131C80593F50F4503E68F11A16F040A22F232F0A
S1131C90342F4427585FF3CF469537952795A7955A
S1131CA0F0405395C9F77EF41F16BA0B620B730B01
S1131CB0840BBAF09150A1F0FF0FBB1F661F771F72
S1131CC0881FC2F70EC0BA0F621F731F841F48F427
S1131CD0879577956795B795F7959E3F08F0B0CFB0
S1131CE09395880F08F09927EE0F97958795089597
S1131CF00E945C0F08F481E008950E94910E0C94F8
S1131D00970F0E94900F58F00E94890F40F029F419
S1131D105F3F29F00C94800F51110C94CB0F0C945D
S1131D20860F0E94A80F68F39923B1F3552391F30A
S1131D30951B550BBB27AA2762177307840738F036
S1131D409F5F5F4F220F331F441FAA1FA9F335D093
S1131D500E2E3AF0E0E832D091505040E695001C47
S1131D60CAF72BD0FE2F29D0660F771F881FBB1F01
S1131D70261737074807AB07B0E809F0BB0B802DDF
S1131D80BF01FF2793585F4F3AF09E3F510578F00B
S1131D900C94800F0C94CB0F5F3FE4F3983ED4F384
S1131DA0869577956795B795F7959F5FC9F7880FDF
S1131DB0911D9695879597F90895E1E0660F771F31
S1131DC0881FBB1F621773078407BA0720F0621BC2
S1131DD0730B840BBA0BEE1F88F7E09508950E94ED
S1131DE0B00F88F09F5798F0B92F9927B751B0F0EA
S1131DF0E1F0660F771F881F991F1AF0BA95C9F78B
S1131E0014C0B13091F00E94CA0FB1E008950C944F
S1131E10CA0F672F782F8827B85F39F0B93FCCF302
S1131E20869577956795B395D9F73EF49095809507
S1131E30709561957F4F8F4F9F4F0895E894F92FC8
S1131E4096EBFF2381F0121613061406440B9395A8
S1131E50F69587957795679557954040FF23B9F791
S1131E601BC099270895882351F49850D2F7872BE3
S1131E70762F652F542F432F322F20E0B1F3121603
S1131E8013061406440B88233AF09A95440F551F01
S1131E90661F771F881FCAF755234AF4440F551F3E
S1131EA011F460FF04C06F5F7F4F8F4F9F4F880F07
S1131EB09695879597F90895990F0008550FAA0BE1
S1131EC0E0E8FEEF16161706E807F907C0F0121649
S1131ED01306E407F50798F0621B730B840B950B4C
S1131EE039F40A2661F0232B242B252B21F40895A1
S1131EF00A2609F4A140A6958FEF811D811D08953E
S1131F0097F99F6780E870E060E008959FEF80ECA8
S1131F10089500240A94161617061806090608954B
S1131F2000240A9412161306140605060895092EB1
S1131F300394000C11F4882352F0BB0F40F4BF2B20
S1131F4011F460FF04C06F5F7F4F8F4F9F4F089560
S1131F5057FD9058440F551F59F05F3F71F0479556
S1131F60880F97FB991F61F09F3F79F0879508953B
S1131F70121613061406551FF2CF4695F1DF08C05A
S1131F80161617061806991FF1CF86957105610577
S1131F9008940895E894BB2766277727CB0197F91F
S1131FA008950E945C0F08F48FEF08950E94E90FD2
S1131FB00C94970F0E94890F38F00E94900F20F024
S1131FC0952311F00C94800F0C94860F11240C941B
S1131FD0CB0F0E94A80F70F3959FC1F3950F50E0AB
S1131FE0551F629FF001729FBB27F00DB11D639FC7
S1131FF0AA27F00DB11DAA1F649F6627B00DA11D6D
S1132000661F829F2227B00DA11D621F739FB00D12
S1132010A11D621F839FA00D611D221F749F332782
S1132020A00D611D231F849F600D211D822F762F1B
S11320306A2F11249F5750409AF0F1F088234AF0F8
S1132040EE0FFF1FBB1F661F771F881F9150504064
S1132050A9F79E3F510580F00C94800F0C94CB0F90
S11320605F3FE4F3983ED4F3869577956795B795EB
S1132070F795E7959F5FC1F7FE2B880F911D969505
S1132080879597F90895A0E1B0E0E9E4F0E10C94B4
S1132090C0137C011B016A01FC0117821682838133
S11320A081FF44C39E012F5F3F4F3901F7019381A4
S11320B0F10193FD859193FF81911F01882309F418
S11320C031C3853239F493FD859193FF81911F01CA
S11320D0853239F4B70190E00E940C155601650170
S11320E0E5CF10E0512C912CFFE1F915D8F08B329B
S11320F079F038F4803279F08332A1F4F92DF0616B
S11321002EC08D3261F0803369F4292D21602DC0F9
S1132110392D3260932E892D8460982E2AC0E92DA2
S1132120E86015C097FC2DC020ED280F2A3088F4F4
S113213096FE06C03AE0139F200D1124122F19C0F9
S11321408AE0589E200D1124522EE92DE0629E2E25
S113215010C08E3231F496FCE5C2F92DF0649F2E46
S113216008C08C3621F4292D2068922E02C08836AE
S113217041F4F10193FD859193FF81911F01811138
S1132180B3CF9BEB980F933020F4992D9061805E30
S113219007C09BE9980F933008F066C1992D9F7E84
S11321A096FF16E09F73992E853619F49064992E44
S11321B008C0863621F4392F3068932E02C01111DD
S11321C0115097FE07C01C3350F444244394410E2D
S11321D027E00BC0183038F027E017E005C027E0EF
S11321E09CE3492E02C0212F412C560184E0A80E05
S11321F0B11CF6016081718182819381042DA30158
S11322000E941E146C01F981FC87F0FF02C0F3FFE9
S113221006C091FC06C092FE06C000E205C00DE2B5
S113222003C00BE201C000E08C858C7019F0011131
S11322305AC29BC297FE10C04C0CFC85F4FF04C02C
S11322408A81813309F44A94141474F528E024151E
S113225078F588E0482E2CC096FC2AC0812F90E0A7
S11322608C159D059CF03CEFC3163FEFD30674F02C
S1132270892D8068982E0AC0E2E0F0E0EC0FFD1F83
S1132280E10FF11D8081803319F411501111F4CF45
S113229097FE0EC044244394410E812F90E0C8164B
S11322A0D9062CF41C1904C04424439401C010E042
S11322B097FE06C01C141D0434F4C601019605C023
S11322C085E090E002C081E090E0011101961123C5
S11322D031F0212F30E02F5F3F4F820F931F252DC8
S11322E030E08217930714F4581A01C0512C892D39
S11322F0897049F4552039F0B70180E290E00E94DA
S11323000C155A94F7CF002329F0B701802F90E0E1
S11323100E940C1593FC09C0552039F0B70180E3E5
S113232090E00E940C155A94F7CF97FE4CC04601DA
S1132330D7FE02C0812C912CC60188199909F3019A
S1132340E80FF91FFE87ED87960124193109388BB0
S11323502F87012F10E01195019511093FEF831686
S1132360930629F4B7018EE290E00E940C15C8147C
S1132370D9044CF08F8598898815990524F4ED8546
S1132380FE85818101C080E3F1E08F1A91082D85DB
S11323903E852F5F3F4F3E872D87801691062CF098
S11323A0B70190E00E940C15D9CFC814D90441F4A8
S11323B09A81963320F4953319F43C8534FF81E3F4
S11323C0B70190E04EC08A81813319F09C859F7ECD
S11323D09C87B70190E00E940C15111105C094FC74
S11323E018C085E690E017C0B7018EE290E00E9425
S11323F00C151E5F82E001E0080FF301E80FF11DE8
S11324008081B70190E00E940C15802F0113F3CF57
S1132410E6CF85E490E0B7010E940C15D7FC06C016
S1132420C114D10441F4EC85E4FF05C0D194C194F6
S1132430D1088DE201C08BE2B70190E00E940C1537
S113244080E32AE0C216D1042CF08F5FFAE0CF1AA1
S1132450D108F7CFB70190E00E940C15B701C6016F
S1132460C0960E940C1554C1833631F0833779F03D
S1132470833509F056C020C0560132E0A30EB11CCA
S1132480F6018081898301E010E0630112C05601E6
S1132490F2E0AF0EB11CF601C080D18096FE03C0FD
S11324A0612F70E002C06FEF7FEFC6010E9401153B
S11324B08C01F92DFF7714C0560122E0A20EB11C45
S11324C0F601C080D18096FE03C0612F70E002C087
S11324D06FEF7FEFC6010E94F6148C01F92DF068AE
S11324E09F2EF3FD1AC0852D90E008171907A8F454
S11324F0B70180E290E00E940C155A94F4CFF601E3
S113250097FC859197FE81916F01B70190E00E943D
S11325100C1551105A94015011090115110579F740
S1132520F7C0843611F0893661F5560197FE09C06B
S113253024E0A20EB11CF601608171818281938135
S11325400AC0F2E0AF0EB11CF60160817181072E62
S1132550000C880B990BF92DFF769F2E97FF09C06D
S113256090958095709561957F4F8F4F9F4FF06840
S11325709F2E2AE030E0A3010E946A15C82EC618D7
S11325803FC0092D853721F40F7E2AE030E01DC0BD
S1132590097F8F3691F018F4883559F0C3C080371D
S11325A019F0883711F0BEC0006104FF09C004604F
S11325B007C094FE08C0066006C028E030E005C0ED
S11325C020E130E002C020E132E0560107FF09C0FB
S11325D084E0A80EB11CF60160817181828193812F
S11325E008C0F2E0AF0EB11CF6016081718180E099
S11325F090E0A3010E946A15C82EC6180F77902E8A
S113260096FE0BC0092D0E7FC11650F494FE0AC02D
S113261092FC08C0092D0E7E05C0DC2C092D03C0D8
S1132620DC2C01C0D12E04FF0DC0FE01EC0DF11D08
S11326308081803311F4097E09C002FF06C0D3945F
S1132640D39404C0802F867809F0D39403FD11C07D
S113265000FF06C01C2DD51480F4150D1D190DC0E6
S1132660D51458F4B70180E290E00E940C15D3947D
S1132670F7CFD51410F45D1801C0512C04FF10C01D
S1132680B70180E390E00E940C1502FF17C001FD22
S113269003C088E790E002C088E590E0B7010CC071
S11326A0802F867859F001FF02C08BE201C080E2DE
S11326B007FD8DE2B70190E00E940C15C11638F4B5
S11326C0B70180E390E00E940C151150F7CFCA9433
S11326D0F301EC0DF11D8081B70190E00E940C150F
S11326E0C110F5CF15C0F4E0F51560F584E0581A73
S11326F093FE1FC0011127C02C8523FF2AC008E6C2
S113270010E0392D3071932EF8018491811124C089
S1132710552009F4E4CCB70180E290E00E940C1546
S11327205A94F6CFF7018681978126C08FEF9FEFE9
S113273023C0B70180E290E00E940C155A94511016
S1132740F8CFD8CF512CB701802F90E00E940C1500
S1132750D3CF0CE610E0D5CF91108052B70190E0B2
S11327600E940C150F5F1F4FCFCF23E0251510F4E7
S113277083E0BDCF512CC0CF6096E2E10C94DC1312
S11327802F923F924F925F926F927F928F929F927D
S1132790AF92BF92CF92DF92EF92FF920F931F936B
S11327A0CF93DF93CDB7DEB7CA1BDB0B0FB6F8941C
S11327B0DEBF0FBECDBF09942A88398848885F845C
S11327C06E847D848C849B84AA84B984C884DF80CD
S11327D0EE80FD800C811B81AA81B981CE0FD11DB1
S11327E00FB6F894DEBF0FBECDBFED0108952A0DDC
S11327F03B1D4C1D5D1D6E1D7F1D801F911F089587
S11328002A193B094C095D096E097F09800B910B5C
S113281008952A153B054C055D056E057F05800767
S1132820910708950024A7FD00942A173005400558
S1132830500560057005800590050895283008F05E
S113284027E03327DA01990F311D87FD9160009647
S11328506105710539F432602E5F3D9330E32A95AA
S1132860E1F708959F3F30F080387105610509F064
S11328703C5F3C5F3D93913008F08068911DDF938D
S1132880CF931F930F93FF92EF92192F987F9695F2
S1132890E92F96959695E90FFF27E653FF4F992761
S11328A03327EE24FF24A701E70105900894079439
S11328B028F4360FE71EF81E491F511D660F771FB7
S11328C0881F991F0694A1F70590079428F4E70E32
S11328D0F81E491F561FC11D770F881F991F661FB9
S11328E00694A1F70590079428F4F80E491F561F83
S11328F0C71FD11D880F991F661F771F0694A1F764
S11329000590079420F4490F561FC71FD81F990F2D
S1132910661F771F881F0694A9F784911095177076
S113292041F0D695C79557954795F794E7941A952E
S1132930C1F7E0E7F0E06894159015913591659141
S1132940959105907FE27395E118F10A430B560BBC
S1132950C90BD009C0F7E10CF11E431F561FC91F54
S1132960D01D7EF4703311F48A95E6CFE8940150BB
S113297030F0080F0AF40027021708F4202F2395DB
S1132980022F7A3328F079E37D932A95E9F710C072
S11329907D932A9589F606949795679537951795AB
S11329A01794E118F10A430B560BC90BD00998F0A0
S11329B023957E9173957A3308F070E37C9320130A
S11329C0B8F77E9170617D9330F0839571E37D93C8
S11329D070E32A95E1F71124EF90FF900F911F9176
S11329E0CF91DF91992787FD90950895FC0105907B
S11329F0615070400110D8F7809590958E0F9F1FFD
S1132A000895FC016150704001900110D8F7809541
S1132A1090958E0F9F1F08950F931F93CF93DF936D
S1132A20FB01238121FD03C08FEF9FEF2CC022FF08
S1132A3016C046815781248135814217530744F4D7
S1132A40A081B1819D012F5F3F4F318320838C93FF
S1132A50268137812F5F3F4F3783268314C08B0134
S1132A60EC01FB010084F185E02D0995892BE1F649
S1132A70D80116968D919C911797019617969C9361
S1132A808E931697CE01DF91CF911F910F910895E8
S1132A90AEE0B0E0EEE4F5E10C94CE130D891E89AE
S1132AA086E08C831A8309838FEF9FE79E838D834F
S1132AB0AE01475E5F4F6F89788DCE0101960E940B
S1132AC04310EF81F885E00FF11F10822E96E4E0A9
S1132AD00C94EA13FA01AA27283051F1203181F12C
S1132AE0E8946F936E7F6E5F7F4F8F4F9F4FAF4F12
S1132AF0B1E03ED0B4E03CD0670F781F891F9A1F25
S1132B00A11D680F791F8A1F911DA11D6A0F711DD8
S1132B10811D911DA11D20D009F468943F912AE0E4
S1132B20269F11243019305D3193DEF6CF010895CC
S1132B30462F4770405D4193B3E00FD0C9F7F6CFFD
S1132B40462F4F70405D4A3318F0495D31FD4052C5
S1132B50419302D0A9F7EACFB4E0A695979587955B
S1132B6077956795BA95C9F700976105710508953A
S1132B709B01AC010A2E06945795479537952795E6
S1132B80BA95C9F7620F731F841F951FA01D08957E
S1072B90F894FFCFE3
S1132B944C6963687473636872616E6B65005A652B
S1132BA469743A202567004C542062656C65677427
S1112BB4004C54204672656920202020000049
S9030000FC
