:100000000C9434000C943E000C943E000C943E0082
:100010000C943E000C943E000C943E000C943E0068
:100020000C943E000C943E000C943E000C943E0058
:100030000C943E000C943E000C943E000C943E0048
:100040000C943E000C943E000C943E000C943E0038
:100050000C943E000C943E000C943E000C943E0028
:100060000C943E000C943E0011241FBECFEFD8E04C
:10007000DEBFCDBF0E9440000C947E000C940000B7
:1000800084B1806184B920E030E017C085B180611F
:1000900085B98FE99FE00197F1F700C0000085B1B5
:1000A0008F7E85B99FE74DEE80E0915040408040C3
:1000B000E1F700C000002F5F3F4F2233310530F3DE
:1000C00020E030E017C085B1806185B98FE697E107
:1000D0000197F1F700C0000085B18F7E85B99FE3DD
:1000E00047EE80E0915040408040E1F700C00000C2
:1000F0002F5F3F4F2233310530F3C5CFF894FFCF48
:00000001FF
