S0150000457273746553636872697474652E73726563C6
S11300000C9434000C9449000C9449000C9449005D
S11300100C9449000C9449000C9449000C94490038
S11300200C9449000C9449000C9449000C94490028
S11300300C9449000C9449000C9449000C94490018
S11300400C9449000C9449000C9449000C94490008
S11300500C9449000C9449000C9449000C944900F8
S11300600C9449000C94490011241FBECFEFD8E032
S1130070DEBFCDBF11E0A0E0B1E0EAECF0E002C0E9
S113008005900D92A230B107D9F70E944B000C9451
S113009063000C940000CF93DF93CDB7DEB784E206
S11300A090E020E2FC012083809100018F5F809327
S11300B0000180910001813029F485E290E020E282
S10D00C0FC012083F1CFF894FFCF78
S10500CA01002F
S9030000FC
