:100000000C9434000C9446000C9446000C9446006A
:100010000C9446000C9446000C9446000C94460048
:100020000C9446000C9448000C9446000C94460036
:100030000C9446000C9446000C9446000C94460028
:100040000C9446000C9446000C9446000C94460018
:100050000C9446000C9446000C9446000C94460008
:100060000C9446000C94460011241FBECFEFD8E03C
:10007000DEBFCDBF21E0A0E0B1E001C01D92A830FD
:10008000B207E1F70E94BB010C947C030C940000C2
:100090001F920F9200905F000F921124AF92BF92B7
:1000A000CF92DF92EF92FF920F931F932F933F9384
:1000B0004F935F936F937F938F939F93CF93DF9330
:1000C000CDB7DEB7A0900001B0900101C090020151
:1000D000D0900301E0900401F09005010091060129
:1000E000109107012A2D3B2D4C2D5D2D6E2D7F2D5E
:1000F000802F912F3F5F4F4F5F4F6F4F7F4F8F4F3D
:100100009F4FA22EB32EC42ED52EE62EF72E082FEB
:10011000192FA0920001B0920101C0920201D09269
:100120000301E0920401F09205010093060110938F
:1001300007010000DF91CF919F918F917F916F9187
:100140005F914F913F912F911F910F91FF90EF90F1
:10015000DF90CF90BF90AF900F9000925F000F9014
:100160001F901895CF93DF93CDB7DEB710920001A3
:1001700010920101109202011092030110920401E9
:1001800010920501109206011092070181EB90E098
:1001900022E0FC01208380E790E020E730E0F901D5
:1001A00020812160FC01208378940000DF91CF91B1
:1001B00008952F923F924F925F926F927F928F920B
:1001C0009F92AF92BF92CF92DF92EF92FF920F93E6
:1001D0001F93CF93DF93CDB7DEB761970FB6F89437
:1001E000DEBF0FBECDBFF89482EB90E0FC018081B2
:1001F000A82EB12CC12CD12CE12CF12C8701F0912F
:100200000001FA87809101018B87909102019C8700
:10021000E0910301ED87F0910401FE8780910501D3
:100220008F8790910601988BE0910701E98B2A2D29
:100230003B2D4C2D5D2D6E2D7F2D802F912FAA846F
:10024000BB84CC84DD84EE84FF84088919890E94F4
:10025000670329833A834B835C836D837E838F831B
:10026000988787E390E0FC0180818987789489856D
:10027000882F90E081709927892B09F44BC08981E0
:10028000F82FF0782F2E8A81982F9070392E8B813D
:10029000E82FE0704E2E8C81F82FF0705F2E8D814C
:1002A000982F9070692E8E81E82FE0707E2E8F81BE
:1002B000F82FF0708F2E8885982F9070992E222D10
:1002C000332D442D552D662D772D882D992DA0E0A9
:1002D0000E947003F9F429813A814B815C816D8120
:1002E0007E818F8198853F5F4F4F5F4F6F4F7F4F6C
:1002F0008F4F9F4FA22EB32EC42ED52EE62EF72E53
:10030000082F192FA982BA82CB82DC82ED82FE826D
:100310000F83188729813A814B815C816D817E81B1
:100320008F819885A22EB32EC42ED52EE62EF72EC1
:10033000082F192F2A2D3B2D4C2D5D2D6E2D7F2D35
:10034000802F912F61960FB6F894DEBF0FBECDBF00
:10035000DF91CF911F910F91FF90EF90DF90CF90A1
:10036000BF90AF909F908F907F906F905F904F90D5
:100370003F902F900895AF92BF92CF92DF92EF926D
:10038000FF920F931F93CF93DF93CDB7DEB72C97D8
:100390000FB6F894DEBF0FBECDBF19821A821B8242
:1003A0001C821D821E821F82188619861A861B8651
:1003B0001C860E94B2000E94D900A22EB32EC42E29
:1003C000D52EE62EF72E082F192FA982BA82CB82BE
:1003D000DC82ED82FE820F8318870E94D900A22E54
:1003E000B32EC42ED52EE62EF72E082F192F2A2D28
:1003F0003B2D4C2D5D2D6E2D7F2D802F912F0E943A
:100400004202DC01CB012DEB37E346E055E3BC01B2
:10041000CD010E948502DC01CB0189879A87AB87D9
:10042000BC87A980BA80CB80DC80ED80FE800F8104
:1004300018852A2D3B2D4C2D5D2D6E2D7F2D802F67
:10044000912F2F3C3740410551056105710581050C
:10045000910531F028F084E290E021E0FC01208356
:100460002AE037ED43EA5CE369857A858B859C85D4
:100470000E94800288232CF084E290E022E0FC01BC
:10048000208399CFE894F92F96EBFF2381F0121681
:1004900013061406440B9395F69587957795679503
:1004A00057954040FF23B9F71BC09927089588232B
:1004B00051F49850D2F7872B762F652F542F432F66
:1004C000322F20E0B1F3121613061406440B8823D2
:1004D0003AF09A95440F551F661F771F881FCAF779
:1004E00055234AF4440F551F11F460FF04C06F5F99
:1004F0007F4F8F4F9F4F880F9695879597F9089557
:100500000E94F20208F48FEF08950E9498020C9462
:100510002D030E941F0338F00E94260320F095232C
:1005200011F00C9416030C941C0311240C94610319
:100530000E943E0370F3959FC1F3950F50E0551F45
:10054000629FF001729FBB27F00DB11D639FAA2728
:10055000F00DB11DAA1F649F6627B00DA11D661F77
:10056000829F2227B00DA11D621F739FB00DA11D98
:10057000621F839FA00D611D221F749F3327A00D52
:10058000611D231F849F600D211D822F762F6A2FEE
:1005900011249F5750409AF0F1F088234AF0EE0F53
:1005A000FF1FBB1F661F771F881F91505040A9F780
:1005B0009E3F510580F00C9416030C9461035F3F3D
:1005C000E4F3983ED4F3869577956795B795F795BC
:1005D000E7959F5FC1F7FE2B880F911D9695879534
:1005E00097F90895990F0008550FAA0BE0E8FEEF60
:1005F00016161706E807F907C0F012161306E407E7
:10060000F50798F0621B730B840B950B39F40A26DF
:1006100061F0232B242B252B21F408950A2609F4BD
:10062000A140A6958FEF811D811D089597F99F67C1
:1006300080E870E060E008959FEF80EC089500246A
:100640000A941616170618060906089500240A9437
:1006500012161306140605060895092E0394000CBD
:1006600011F4882352F0BB0F40F4BF2B11F460FF4C
:1006700004C06F5F7F4F8F4F9F4F089557FD905875
:10068000440F551F59F05F3F71F04795880F97FB56
:10069000991F61F09F3F79F0879508951216130610
:1006A0001406551FF2CF4695F1DF08C0161617063F
:1006B0001806991FF1CF8695710561050894089574
:1006C000E894BB2766277727CB0197F908952A0D71
:1006D0003B1D4C1D5D1D6E1D7F1D801F911F0895CC
:1006E0000024A7FD00942A17300540055005600539
:0C06F0007005800590050895F894FFCF78
:00000001FF
