:100000000C9434000C9446000C9446000C9446006A
:100010000C9446000C9446000C9446000C94460048
:100020000C9446000C9446000C9446000C94460038
:100030000C9446000C9446000C9446000C94460028
:100040000C9448000C9446000C9446000C94460016
:100050000C9446000C9446000C9446000C94460008
:100060000C9446000C94460011241FBECFEFD8E03C
:10007000DEBFCDBF21E0A0E0B1E001C01D92A23003
:10008000B207E1F70E9479000C94BB000C940000C9
:100090001F920F9200905F000F9211242F933F93B5
:1000A0008F939F93EF93FF93CF93DF93CDB7DEB7FB
:1000B00086E490E02091000130910101FC01208351
:1000C0008BE290E02BE230E0F901308120E8232739
:1000D000FC0120830000DF91CF91FF91EF919F9170
:1000E0008F913F912F910F9000925F000F901F9082
:1000F0001895CF93DF93CDB7DEB78AE290E02AE27E
:1001000030E0F90120812068FC0120838BE290E03F
:100110002BE230E0F90120812460FC01208386E499
:1001200090E023E8FC01208385E490E023E0FC01DB
:1001300020838EE690E02EE630E0F90120812160F8
:10014000FC012083789489E290E0FC018081882F73
:1001500090E084709927892B39F482EC90E0909399
:10016000010180930001EFCF83E890E090930101BB
:0A01700080930001E8CFF894FFCF60
:00000001FF
