:100000000C942A000C9434000C9434000C943400AA
:100010000C9434000C9434000C9434000C94340090
:100020000C9434000C9434000C9434000C9436007E
:100030000C9434000C9434000C9434000C94340070
:100040000C9434000C9434000C9434000C94340060
:100050000C94340011241FBECFE5D8E0DEBFCDBF25
:100060000E9463000C9485000C9400001F920F9274
:1000700000905F000F9211242F933F938F939F93D3
:10008000EF93FF93CF93DF93CDB7DEB782E590E098
:1000900022EBFC01208382E390E022E330E0F901CF
:1000A000308120E82327FC012083DF91CF91FF914D
:1000B000EF919F918F913F912F910F9000925F0050
:1000C0000F901F901895CF93DF93CDB7DEB781E3E4
:1000D00090E021E330E0F90120812068FC012083D9
:1000E00082E590E022EBFC01208383E590E025E0AF
:1000F000FC01208389E590E029E530E0F9012081C9
:0E0100002160FC0120837894FFCFF894FFCF9C
:00000001FF
