:100000000C94B5000C94D2000C94D2000C94D20045
:100010000C94D2000C94D2000C94D2000C94D20018
:100020000C94D2000C94D4000C94D2000C94D20006
:100030000C94D2000C94D2000C94D2000C94D200F8
:100040000C94D2000C94D2000C942E030C947C03DC
:100050000C94D2000C94D2000C94D2000C94D200D8
:100060000C94D2000C94D2006E616E00696E660032
:1000700000407A10F35A00A0724E18090010A5D45F
:10008000E80000E87648170000E40B54020000CABC
:100090009A3B000000E1F505000080969800000002
:1000A00040420F000000A086010000001027000061
:1000B0000000E803000000006400000000000A00E7
:1000C000000000000100000000002C76D888DC67EA
:1000D0004F0823DFC1DFAE59E1B1B796E5E3E45342
:1000E000C63AE651997696E8E6C28426EB898C9B5F
:1000F00062ED407C6FFCEFBC9C9F40F2BAA56FA5FF
:10010000F490055A2AF75C936B6CF9676DC11BFC80
:10011000E0E40D47FEF520E6B500D0ED902E03009B
:10012000943577050080841E080000204E0A0000E8
:1001300000C80C333333330F986E12831141EF8DA7
:100140002114893BE65516CFFEE6DB18D1844B38E7
:100150001BF77C1D901DA4BBE424203284725E2218
:100160008100C9F124ECA1E53D2711241FBECFEF8A
:10017000D8E0DEBFCDBF11E0A0E0B1E0E8E9F6E1F4
:1001800002C005900D92A831B107D9F721E0A8E18E
:10019000B1E001C01D92A536B207E1F70E94470207
:1001A0000C944A0B0C9400001F920F9200905F0079
:1001B0000F921124AF92BF92CF92DF92EF92FF92F3
:1001C0000F931F932F933F934F935F936F937F935F
:1001D0008F939F93CF93DF93CDB7DEB7A0905D0150
:1001E000B0905E01C0905F01D0906001E09061012D
:1001F000F090620100916301109164012A2D3B2D62
:100200004C2D5D2D6E2D7F2D802F912F3F5F4F4FF9
:100210005F4F6F4F7F4F8F4F9F4FA22EB32EC42E35
:10022000D52EE62EF72E082F192FA0925D01B09241
:100230005E01C0925F01D0926001E0926101F09294
:10024000620100936301109364010000DF91CF917C
:100250009F918F917F916F915F914F913F912F91DE
:100260001F910F91FF90EF90DF90CF90BF90AF90D4
:100270000F9000925F000F901F901895CF93DF931F
:10028000CDB7DEB710925D0110925E0110925F0152
:10029000109260011092610110926201109263014C
:1002A0001092640181EB90E022E0FC01208380E762
:1002B00090E020E730E0F90120812160FC012083FB
:1002C00078940000DF91CF9108952F923F924F9242
:1002D0005F926F927F928F929F92AF92BF92CF92D6
:1002E000DF92EF92FF920F931F93CF93DF93CDB7DF
:1002F000DEB761970FB6F894DEBF0FBECDBFF8949E
:1003000082EB90E0FC018081A82EB12CC12CD12C75
:10031000E12CF12C8701F0915D01FA8780915E015B
:100320008B8790915F019C87E0916001ED87F09150
:100330006101FE87809162018F8790916301988BA4
:10034000E0916401E98B2A2D3B2D4C2D5D2D6E2D06
:100350007F2D802F912FAA84BB84CC84DD84EE84F2
:10036000FF84088919890E948B0929833A834B836A
:100370005C836D837E838F83988787E390E0FC01A5
:100380008081898778948985882F90E0817099276A
:10039000892B09F44BC08981F82FF0782F2E8A81A0
:1003A000982F9070392E8B81E82FE0704E2E8C8123
:1003B000F82FF0705F2E8D81982F9070692E8E81AE
:1003C000E82FE0707E2E8F81F82FF0708F2E8885B9
:1003D000982F9070992E222D332D442D552D662D5A
:1003E000772D882D992DA0E00E949409F9F4298198
:1003F0003A814B815C816D817E818F8198853F5FE1
:100400004F4F5F4F6F4F7F4F8F4F9F4FA22EB32E97
:10041000C42ED52EE62EF72E082F192FA982BA82C8
:10042000CB82DC82ED82FE820F83188729813A819C
:100430004B815C816D817E818F819885A22EB32E48
:10044000C42ED52EE62EF72E082F192F2A2D3B2D40
:100450004C2D5D2D6E2D7F2D802F912F61960FB627
:10046000F894DEBF0FBECDBFDF91CF911F910F91EA
:10047000FF90EF90DF90CF90BF90AF909F908F90C4
:100480007F906F905F904F903F902F900895AF9224
:10049000BF92CF92DF92EF92FF920F931F93CF9371
:1004A000DF93CDB7DEB7C156D1090FB6F894DEBFE2
:1004B0000FBECDBF85E290E025E230E0F90120815A
:1004C0002061FC01208388E090E00E94C0037894C2
:1004D0001E821F82188619861A861B861C861D8618
:1004E0001E861F86188A198A19821A821B821C820C
:1004F0000E943E010E946501A22EB32EC42ED52E6D
:10050000E62EF72E082F192FAE82BF82C886D98615
:10051000EA86FB860C871D870E946501A22EB32EFA
:10052000C42ED52EE62EF72E082F192F2A2D3B2D5F
:100530004C2D5D2D6E2D7F2D802F912F0E94B204AA
:10054000DC01CB012DEB37E346E055E3BC01CD01E7
:100550000E946A05DC01CB018E879F87A88BB98B2F
:1005600083E290E0FC018081882F90E080719927E0
:10057000892B09F065C08D81882309F061C020E0D6
:1005800030E0A90169817A818B819C810E94AD0450
:10059000882369F48E859F85A889B98989839A8380
:1005A000AB83BC8380E091E00E94210449C020E03D
:1005B00030E0A90169817A818B819C810E94650567
:1005C0001816B4F529813A814B815C816E857F854F
:1005D000888999890E944004DC01CB012B2F2F933D
:1005E0002A2F2F93292F2F938F9387E091E0892F24
:1005F0008F9387E091E08F93CE014296292F2F931E
:100600008F930E94CA0A8DB79EB708960FB6F894CA
:10061000DEBF0FBECDBFCE0142960E94210480E016
:1006200090E0A0E8BFEB89839A83AB83BC8308C0CA
:1006300019821A821B821C8281E191E00E942104AE
:1006400083E290E0FC018081882F90E080719927FF
:1006500021E0892B09F020E02D834CCF1F920F92CF
:1006600000905F000F9211242F938F939F93EF932D
:10067000FF93CF93DF9300D000D0CDB7DEB780ECEF
:1006800090E0FC0180818A8386EC90E0FC0180810F
:100690008B838A818C71898380915A018F5F8F71DE
:1006A0008C8380915B019C81981719F482E0898387
:1006B0000BC08C8180935A018C81882F90E0885CDC
:1006C0009E4F2B81FC01208390915C018981892BB5
:1006D00080935C0100000F900F900F900F90DF91BE
:1006E000CF91FF91EF919F918F912F910F90009259
:1006F0005F000F901F9018951F920F9200905F005F
:100700000F9211242F933F938F939F93EF93FF9317
:10071000CF93DF931F92CDB7DEB7909158018091B0
:1007200059019817A1F0809159018F5F8F718983CA
:1007300089818093590186EC90E02981222F30E055
:10074000285E3E4FF9012081FC01208309C081EC25
:1007500090E021EC30E0F90120812F7DFC01208325
:1007600000000F90DF91CF91FF91EF919F918F91BA
:100770003F912F910F9000925F000F901F9018955E
:10078000CF93DF9300D0CDB7DEB79A8389831092E1
:1007900058011092590110925A0110925B018981FF
:1007A0009A8199232CF480EC90E022E0FC012083D4
:1007B00085EC90E029813A81232F33272078FC01B2
:1007C000208384EC90E02981FC01208381EC90E07F
:1007D00028E9FC01208382EC90E026E0FC012083E4
:1007E00000000F900F90DF91CF910895CF93DF938A
:1007F00000D0CDB7DEB78A83809158018F5F8F71AB
:10080000898300008091590199819817D9F38981D2
:10081000882F90E0885E9E4F2A81FC012083898189
:100820008093580181EC90E021EC30E0F9012081C7
:100830002062FC01208300000F900F90DF91CF9188
:100840000895CF93DF9300D0CDB7DEB79A83898325
:100850000BC089819A819C012F5F3F4F3A83298386
:10086000FC0180810E94F60389819A81FC018081CC
:10087000882379F700000F900F90DF91CF910895B2
:100880005058BB27AA270E9458040C942B050E949D
:100890001D0538F00E94240520F039F49F3F19F41B
:1008A00026F40C941A050EF4E095E7FB0C9414055D
:1008B000E92F0E943C0558F3BA17620773078407B3
:1008C000950720F079F4A6F50C945E050EF4E095FA
:1008D0000B2EBA2FA02D0B01B90190010C01CA01FA
:1008E000A0011124FF27591B99F0593F50F4503EA5
:1008F00068F11A16F040A22F232F342F4427585F97
:10090000F3CF469537952795A795F0405395C9F7AE
:100910007EF41F16BA0B620B730B840BBAF0915066
:10092000A1F0FF0FBB1F661F771F881FC2F70EC005
:10093000BA0F621F731F841F48F4879577956795D8
:10094000B795F7959E3F08F0B0CF9395880F08F0C4
:100950009927EE0F9795879508950E94F00408F463
:1009600081E00895E894F92F96EBFF2381F01216A9
:1009700013061406440B9395F6958795779567951E
:1009800057954040FF23B9F71BC099270895882346
:1009900051F49850D2F7872B762F652F542F432F81
:1009A000322F20E0B1F3121613061406440B8823ED
:1009B0003AF09A95440F551F661F771F881FCAF794
:1009C00055234AF4440F551F11F460FF04C06F5FB4
:1009D0007F4F8F4F9F4F880F9695879597F9089572
:1009E000990F0008550FAA0BE0E8FEEF1616170640
:1009F000E807F907C0F012161306E407F50798F0A8
:100A0000621B730B840B950B39F40A2661F0232BC0
:100A1000242B252B21F408950A2609F4A140A6953C
:100A20008FEF811D811D089597F99F6780E870E021
:100A300060E008959FEF80EC089500240A94161654
:100A4000170618060906089500240A9412161306BC
:100A5000140605060895092E0394000C11F488234A
:100A600052F0BB0F40F4BF2B11F460FF04C06F5F66
:100A70007F4F8F4F9F4F089557FD9058440F551F3C
:100A800059F05F3F71F04795880F97FB991F61F010
:100A90009F3F79F087950895121613061406551F87
:100AA000F2CF4695F1DF08C0161617061806991FF3
:100AB000F1CF86957105610508940895E894BB27E8
:100AC00066277727CB0197F908950E94F00408F470
:100AD0008FEF08950E947D050C942B050E941D0543
:100AE00038F00E94240520F0952311F00C94140591
:100AF0000C941A0511240C945F050E943C0570F3B8
:100B0000959FC1F3950F50E0551F629FF001729FB2
:100B1000BB27F00DB11D639FAA27F00DB11DAA1FC1
:100B2000649F6627B00DA11D661F829F2227B00D0E
:100B3000A11D621F739FB00DA11D621F839FA00D99
:100B4000611D221F749F3327A00D611D231F849FE9
:100B5000600D211D822F762F6A2F11249F57504040
:100B60009AF0F1F088234AF0EE0FFF1FBB1F661FBB
:100B7000771F881F91505040A9F79E3F510580F084
:100B80000C9414050C945F055F3FE4F3983ED4F396
:100B9000869577956795B795F795E7959F5FC1F728
:100BA000FE2B880F911D9695879597F90895A0E1E2
:100BB000B0E0EDEDF5E00C9454097C011B016A01F5
:100BC000FC0117821682838181FF44C39E012F5F3F
:100BD0003F4F3901F7019381F10193FD859193FF17
:100BE00081911F01882309F431C3853239F493FDC3
:100BF000859193FF81911F01853239F4B70190E00F
:100C00000E948E0A56016501E5CF10E0512C912C0F
:100C1000FFE1F915D8F08B3279F038F4803279F0B1
:100C20008332A1F4F92DF0612EC08D3261F0803352
:100C300069F4292D21602DC0392D3260932E892D24
:100C40008460982E2AC0E92DE86015C097FC2DC05D
:100C500020ED280F2A3088F496FE06C03AE0139F54
:100C6000200D1124122F19C08AE0589E200D112446
:100C7000522EE92DE0629E2E10C08E3231F496FC89
:100C8000E5C2F92DF0649F2E08C08C3621F4292D81
:100C90002068922E02C0883641F4F10193FD8591BF
:100CA00093FF81911F018111B3CF9BEB980F93307C
:100CB00020F4992D9061805E07C09BE9980F9330D6
:100CC00008F066C1992D9F7E96FF16E09F73992EBE
:100CD000853619F49064992E08C0863621F4392F90
:100CE0003068932E02C01111115097FE07C01C33BB
:100CF00050F444244394410E27E00BC0183038F0E0
:100D000027E017E005C027E09CE3492E02C0212F11
:100D1000412C560184E0A80EB11CF601608171815E
:100D200082819381042DA3010E94A0096C01F981A5
:100D3000FC87F0FF02C0F3FF06C091FC06C092FEE4
:100D400006C000E205C00DE203C00BE201C000E0F6
:100D50008C858C7019F001115AC29BC297FE10C08D
:100D60004C0CFC85F4FF04C08A81813309F44A9459
:100D7000141474F528E0241578F588E0482E2CC06A
:100D800096FC2AC0812F90E08C159D059CF03CEFCD
:100D9000C3163FEFD30674F0892D8068982E0AC0E1
:100DA000E2E0F0E0EC0FFD1FE10FF11D80818033E8
:100DB00019F411501111F4CF97FE0EC0442443943E
:100DC000410E812F90E0C816D9062CF41C1904C0DE
:100DD0004424439401C010E097FE06C01C141D0477
:100DE00034F4C601019605C085E090E002C081E0C0
:100DF00090E001110196112331F0212F30E02F5F97
:100E00003F4F820F931F252D30E08217930714F474
:100E1000581A01C0512C892D897049F4552039F098
:100E2000B70180E290E00E948E0A5A94F7CF002327
:100E300029F0B701802F90E00E948E0A93FC09C030
:100E4000552039F0B70180E390E00E948E0A5A9451
:100E5000F7CF97FE4CC04601D7FE02C0812C912CE3
:100E6000C60188199909F301E80FF91FFE87ED877C
:100E7000960124193109388B2F87012F10E0119525
:100E8000019511093FEF8316930629F4B7018EE20D
:100E900090E00E948E0AC814D9044CF08F8598897E
:100EA0008815990524F4ED85FE85818101C080E3D4
:100EB000F1E08F1A91082D853E852F5F3F4F3E87C9
:100EC0002D87801691062CF0B70190E00E948E0AC3
:100ED000D9CFC814D90441F49A81963320F49533BC
:100EE00019F43C8534FF81E3B70190E04EC08A815C
:100EF000813319F09C859F7E9C87B70190E00E940A
:100F00008E0A111105C094FC18C085E690E017C048
:100F1000B7018EE290E00E948E0A1E5F82E001E03F
:100F2000080FF301E80FF11D8081B70190E00E94E6
:100F30008E0A802F0113F3CFE6CF85E490E0B7014E
:100F40000E948E0AD7FC06C0C114D10441F4EC857E
:100F5000E4FF05C0D194C194D1088DE201C08BE2B9
:100F6000B70190E00E948E0A80E32AE0C216D10405
:100F70002CF08F5FFAE0CF1AD108F7CFB70190E0DD
:100F80000E948E0AB701C601C0960E948E0A54C103
:100F9000833631F0833779F0833509F056C020C0AD
:100FA000560132E0A30EB11CF6018081898301E075
:100FB00010E0630112C05601F2E0AF0EB11CF60161
:100FC000C080D18096FE03C0612F70E002C06FEF39
:100FD0007FEFC6010E94830A8C01F92DFF7714C0B0
:100FE000560122E0A20EB11CF601C080D18096FE0F
:100FF00003C0612F70E002C06FEF7FEFC6010E9457
:10100000780A8C01F92DF0689F2EF3FD1AC0852D0A
:1010100090E008171907A8F4B70180E290E00E9459
:101020008E0A5A94F4CFF60197FC859197FE819130
:101030006F01B70190E00E948E0A51105A9401503E
:1010400011090115110579F7F7C0843611F08936B9
:1010500061F5560197FE09C024E0A20EB11CF6010D
:1010600060817181828193810AC0F2E0AF0EB11C70
:10107000F60160817181072E000C880B990BF92D08
:10108000FF769F2E97FF09C090958095709561958A
:101090007F4F8F4F9F4FF0689F2E2AE030E0A301D3
:1010A0000E94EC0AC82EC6183FC0092D853721F4CE
:1010B0000F7E2AE030E01DC0097F8F3691F018F4D2
:1010C000883559F0C3C0803719F0883711F0BEC099
:1010D000006104FF09C0046007C094FE08C00660F8
:1010E00006C028E030E005C020E130E002C020E189
:1010F00032E0560107FF09C084E0A80EB11CF601DA
:10110000608171818281938108C0F2E0AF0EB11CD1
:10111000F6016081718180E090E0A3010E94EC0AF9
:10112000C82EC6180F77902E96FE0BC0092D0E7F85
:10113000C11650F494FE0AC092FC08C0092D0E7E20
:1011400005C0DC2C092D03C0DC2C01C0D12E04FF0E
:101150000DC0FE01EC0DF11D8081803311F4097E7C
:1011600009C002FF06C0D394D39404C0802F8678B0
:1011700009F0D39403FD11C000FF06C01C2DD51447
:1011800080F4150D1D190DC0D51458F4B70180E277
:1011900090E00E948E0AD394F7CFD51410F45D1816
:1011A00001C0512C04FF10C0B70180E390E00E9401
:1011B0008E0A02FF17C001FD03C088E790E002C05D
:1011C00088E590E0B7010CC0802F867859F001FFC8
:1011D00002C08BE201C080E207FD8DE2B70190E022
:1011E0000E948E0AC11638F4B70180E390E00E9495
:1011F0008E0A1150F7CFCA94F301EC0DF11D8081D6
:10120000B70190E00E948E0AC110F5CF15C0F4E03E
:10121000F51560F584E0581A93FE1FC0011127C030
:101220002C8523FF2AC008E610E0392D3071932E5B
:10123000F8018491811124C0552009F4E4CCB70150
:1012400080E290E00E948E0A5A94F6CFF7018681E0
:10125000978126C08FEF9FEF23C0B70180E290E017
:101260000E948E0A5A945110F8CFD8CF512CB70152
:10127000802F90E00E948E0AD3CF0CE610E0D5CFED
:1012800091108052B70190E00E948E0A0F5F1F4FAD
:10129000CFCF23E0251510F483E0BDCF512CC0CF74
:1012A0006096E2E10C9470092F923F924F925F9208
:1012B0006F927F928F929F92AF92BF92CF92DF9266
:1012C000EF92FF920F931F93CF93DF93CDB7DEB7CB
:1012D000CA1BDB0B0FB6F894DEBF0FBECDBF09945F
:1012E0002A88398848885F846E847D848C849B84B6
:1012F000AA84B984C884DF80EE80FD800C811B81C4
:10130000AA81B981CE0FD11D0FB6F894DEBF0FBEF2
:10131000CDBFED0108952A0D3B1D4C1D5D1D6E1DB9
:101320007F1D801F911F08950024A7FD00942A1798
:10133000300540055005600570058005900508954D
:10134000283008F027E03327DA01990F311D87FD97
:10135000916000966105710539F432602E5F3D930E
:1013600030E32A95E1F708959F3F30F0803871050A
:10137000610509F03C5F3C5F3D93913008F0806867
:10138000911DDF93CF931F930F93FF92EF92192F2D
:10139000987F9695E92F96959695E90FFF27E65346
:1013A000FF4F99273327EE24FF24A701E70105907B
:1013B0000894079428F4360FE71EF81E491F511DA4
:1013C000660F771F881F991F0694A1F70590079451
:1013D00028F4E70EF81E491F561FC11D770F881FFE
:1013E000991F661F0694A1F70590079428F4F80E3C
:1013F000491F561FC71FD11D880F991F661F771FD2
:101400000694A1F70590079420F4490F561FC71FB3
:10141000D81F990F661F771F881F0694A9F784911C
:101420001095177041F0D695C79557954795F79445
:10143000E7941A95C1F7E0E7F0E0689415901591EC
:1014400035916591959105907FE27395E118F10AC8
:10145000430B560BC90BD009C0F7E10CF11E431F1B
:10146000561FC91FD01D7EF4703311F48A95E6CF44
:10147000E894015030F0080F0AF40027021708F42E
:10148000202F2395022F7A3328F079E37D932A9534
:10149000E9F710C07D932A9589F60694979567958C
:1014A000379517951794E118F10A430B560BC90BA2
:1014B000D00998F023957E9173957A3308F070E304
:1014C0007C932013B8F77E9170617D9330F0839503
:1014D00071E37D9370E32A95E1F71124EF90FF907B
:1014E0000F911F91CF91DF91992787FD90950895D6
:1014F000FC010590615070400110D8F780959095DF
:101500008E0F9F1F0895FC016150704001900110E3
:10151000D8F7809590958E0F9F1F08950F931F9376
:10152000CF93DF93FB01238121FD03C08FEF9FEF5A
:101530002CC022FF16C04681578124813581421775
:10154000530744F4A081B1819D012F5F3F4F318348
:1015500020838C93268137812F5F3F4F37832683EB
:1015600014C08B01EC01FB010084F185E02D09958D
:10157000892BE1F6D80116968D919C9117970196CB
:1015800017969C938E931697CE01DF91CF911F9162
:101590000F910895AEE0B0E0E0EDFAE00C9462093E
:1015A0000D891E8986E08C831A8309838FEF9FE75C
:1015B0009E838D83AE01475E5F4F6F89788DCE012C
:1015C00001960E94D705EF81F885E00FF11F108288
:1015D0002E96E4E00C947E09FA01AA27283051F1F6
:1015E000203181F1E8946F936E7F6E5F7F4F8F4F54
:1015F0009F4FAF4FB1E03ED0B4E03CD0670F781FB3
:10160000891F9A1FA11D680F791F8A1F911DA11D97
:101610006A0F711D811D911DA11D20D009F46894D0
:101620003F912AE0269F11243019305D3193DEF678
:10163000CF010895462F4770405D4193B3E00FD02E
:10164000C9F7F6CF462F4F70405D4A3318F0495D19
:1016500031FD4052419302D0A9F7EACFB4E0A695FC
:101660009795879577956795BA95C9F7009761051E
:10167000710508959B01AC010A2E06945795479574
:1016800037952795BA95C9F7620F731F841F951F69
:08169000A01D0895F894FFCF9E
:1016980053746172740A005A6569743A2025460ABF
:0816A8000052657365740A002D
:00000001FF
