S00F0000536572766F5F312E7372656376
S11300000C9434000C9446000C9446000C94460066
S11300100C9446000C9446000C9446000C94460044
S11300200C9446000C9446000C9446000C94480032
S11300300C9446000C9446000C94BB000C944600AF
S11300400C9446000C9446000C9446000C94460014
S11300500C9446000C9446000C9446000C94460004
S11300600C9446000C94460011241FBECFEFD8E038
S1130070DEBFCDBF21E0A0E0B1E001C01D92A730FA
S1130080B207E1F70E943B010C948A010C94000032
S11300901F920F9200905F000F9211242F933F93B1
S11300A04F935F938F939F93EF93FF93CF93DF933C
S11300B000D000D0CDB7DEB7809105019091060144
S11300C09A838983809105019091060120E23EE4A0
S11300D0A901481B590BCA019C838B83809104019D
S11300E0882F90E0009719F00197C9F02FC088E895
S11300F090E029813A813695279536952795FC011C
S11301003183208381E0809304018BE290E02BE231
S113011030E0F90120812064FC01208317C088E8C5
S113012090E02B813C813695279536952795FC01E7
S113013031832083109204018BE290E02BE230E0C3
S1130140F90120812F7BFC012083000000000F9027
S11301500F900F900F90DF91CF91FF91EF919F91AE
S11301608F915F914F913F912F910F9000925F007B
S11301700F901F9018951F920F9200905F000F929E
S113018011248F939F93AF93BF93CF93DF93CDB7F6
S1130190DEB78091000190910101A0910201B0911C
S11301A003010196A11DB11D8093000190930101EB
S11301B0A0930201B09303010000DF91CF91BF919E
S11301C0AF919F918F910F9000925F000F901F90BD
S11301D01895CF93DF93CDB7DEB781E890E021E89F
S11301E030E0F90120812360FC01208381E890E064
S11301F021E830E0F90120812860FC01208388E8AF
S113020090E029EF30E0FC01318320838FE690E019
S11302102FE630E0F90120812260FC0120830000F8
S1130220DF91CF910895CF93DF93CDB7DEB785E407
S113023090E025E430E0F90120812360FC01208373
S113024084E490E024E430E0F90120812260FC01A0
S1130250208387E490E029EFFC0120838EE690E080
S11302602EE630E0F90120812260FC0120830000A9
S1130270DF91CF910895CF93DF93CDB7DEB70E947E
S113028013010E94E9008AE290E02AE230E0F901D9
S113029020812064FC012083789480910001909156
S11302A00101A0910201B0910301883E9340A10590
S11302B0B10538F488EE93E090930601809305012C
S11302C013C08091000190910101A0910201B091AD
S11302D00301803D9740A105B10530F480ED97E01E
S11302E09093060180930501809100019091010192
S11302F0A0910201B0910301813D9740A105B10590
S113030060F2109200011092010110920201109209
S10B03100301C3CFF894FFCFF1
S9030000FC
