S00F00004D6568724C65642E7372656374
S11300000C9434000C943E000C943E000C943E007E
S11300100C943E000C943E000C943E000C943E0064
S11300200C943E000C943E000C943E000C943E0054
S11300300C943E000C943E000C943E000C943E0044
S11300400C943E000C943E000C943E000C943E0034
S11300500C943E000C943E000C943E000C943E0024
S11300600C943E000C943E0011241FBECFEFD8E048
S1130070DEBFCDBF0E9456000C9464000C940000B7
S113008085B1882319F085B18C3019F481E285B9E2
S1130090089585B1837095B1981B95B995B19695DE
S11300A095B995B1880F890F85B908958FEF84B9F3
S11300B00E9440002FEF83EC99E021508040904053
S10F00C0E1F700C00000F4CFF894FFCF7B
S9030000FC
